:040000003DEF00F0E0
:10000800FACF25F0FBCF26F0E9CF27F0EACF28F08A
:10001800E1CF29F0E2CF2AF0D9CF2BF0DACF2CF0BC
:10002800F3CF2DF0F4CF2EF0F6CF2FF0F7CF30F03E
:10003800F8CF31F0F5CF32F032C0F5FF31C0F8FF1C
:1000480030C0F7FF2FC0F6FF2EC0F4FF2DC0F3FF1E
:100058002CC0DAFF2BC0D9FF2AC0E2FF29C0E1FF7C
:1000680028C0EAFF27C0E9FF26C0FBFF25C0FAFF2A
:10007800110013EF01F03EC033F03FC034F0000E22
:10008800366E2A0E356E89EC00F03350406E050E40
:10009800406402D0050E406E4050060D010EF32458
:1000A800D96E000EF420DA6EDECF42F0DDCF43F0D9
:1000B8004050060D020EF326000EF422010EF32422
:1000C800D96E000EF420DA6EDECF44F0DDCF45F0B5
:1000D8004050060D040EF326000EF422010EF32400
:1000E800D96E000EF420DA6EDECF46F0DDCF47F091
:1000F80020EE42F010EE36F0060EDECFE6FFE82ED8
:10010800FCD7B2EC00F000F01200000E386E000EC2
:10011800376E36503510D8B41CD0010E396E04D065
:10012800D89035363636392A36AEFAD7D89037369B
:1001380038363550335C36503458D8A005D0355051
:10014800335E3650345A3780D89036323532392EAD
:10015800EDD737C033F038C034F0120036503D6E5A
:100168003C6A3CC033F03DC034F02CEC01F0385010
:100178003D6E3C6A3CC033F03DC034F02CEC01F0DD
:100188003A503D6E3C6A3CC033F03DC034F02CEC34
:1001980001F08B9400F000F000F08B8400F000F088
:1001A80000F01200000E7E6E000E7F6ED388D38A98
:1001B800D38C3F0E7C6EF19E9496949A8B84949483
:1001C8007E80CF0EC116C294C296C298C29AC280CF
:1001D800C09EC086C088C08AC050F80B0309C06E94
:1001E800C2801200D6EC00F0D0CF41F000F000F051
:1001F80000F0130ED012000E80BA010E4C6E000EE5
:100208003F6E000E3E6E3FEC00F00400C2B2FDD718
:10021800C4CF3EF03F6A3FEC00F0C282F6D700EE52
:1002280042F00B0EEE6AE806FDE1840EF66E020E51
:10023800F76E000EF86E00EE01F010EE24F00900E3
:10024800F5CFEEFFE550E150FAE10001F6EF00F0DE
:10025800000E356E0F0E356401D0120034AE02D098
:100268008B8A01D08B9AD890333634368B8600F03F
:100278008B96352A0F0E3564F1D712000000000066
:1002880000003E0033005500CA003E000100FD009A
:100298007F0004007900B800AF00FF00F200B5004D
:020000040020DA
:08000000FFFFFFFFFFFFFFFF00
:020000040030CA
:0E000000FF081810FF0B81FF0FC00FE00F402C
:00000001FF
